:100000000C9462000C948A000C948A000C948A0070
:100010000C948A000C948A000C948A000C948A0038
:100020000C948A000C948A000C948A000C942E0381
:100030000C948A000C948A000C948A000C948A0018
:100040000C94E4020C948A000C94B2020C948C027E
:100050000C948A000C948A000C948A000C948A00F8
:100060000C948A000C948A000000000024002700F1
:100070002A0000000000250028002B0000000008D6
:10008000000201000003040700000000000000005F
:1000900000000000230026002900040404040404D6
:1000A0000404020202020202030303030303010227
:1000B00004081020408001020408102001020408F6
:1000C00010202F0411241FBECFEFD8E0DEBFCDBF1C
:1000D00011E0A0E0B1E0EEE0F0E102C005900D9289
:1000E000A235B107D9F722E0A2E5B1E001C01D9227
:1000F000A132B207E1F710E0C2E6D0E004C02197D8
:10010000FE010E94FF07C136D107C9F70E948C0487
:100110000C9405080C940000E0911E02EC3088F568
:1001200040911F0228E830E0241B310947FD339538
:10013000220F331F220F331F8217930784F0409141
:10014000200228E532E0241B310947FD3395220FB8
:10015000331F220F331F821793070CF49C01225088
:100160003109220F331F4FB7F8948E2F90E0FC0116
:10017000EE0FFF1FE80FF91FE750FE4F3283218378
:100180004FBF0895AF92BF92CF92DF92EF92FF924E
:100190000F931F93CF93DF936C017B018B01040FAF
:1001A000151FEB015E01AE18BF08C017D10759F04B
:1001B0006991D601ED91FC910190F081E02DC6018D
:1001C0000995892B79F7C501DF91CF911F910F9187
:1001D000FF90EF90DF90CF90BF90AF900895FC011B
:1001E000538D448D252F30E0842F90E0821B930B9C
:1001F000541710F0CF96089501970895FC01918D42
:10020000828D981761F0A28DAE0FBF2FB11D5D9644
:100210008C91928D9F5F9F73928F90E008958FEFE6
:100220009FEF0895FC01918D828D981731F0828D9A
:10023000E80FF11D858D90E008958FEF9FEF0895F1
:10024000FC01918D228D892F90E0805C9F4F821B55
:1002500091098F73992708958CE591E00E94200100
:1002600021E0892B09F420E0822F089580E090E0BE
:10027000892B29F00E942C0181110C940000089513
:10028000FC01A48DA80FB92FB11DA35ABF4F2C910B
:10029000848D90E001968F739927848FA689B78902
:1002A0002C93A089B1898C91837080648C93938DF9
:1002B000848D981306C00288F389E02D80818F7D9C
:1002C00080830895EF92FF920F931F93CF93DF9354
:1002D000EC0181E0888F9B8D8C8D98131AC0E88982
:1002E000F989808185FF15C09FB7F894EE89FF8951
:1002F0006083E889F98980818370806480839FBFEF
:1003000081E090E0DF91CF911F910F91FF90EF90EE
:100310000895F62E0B8D10E00F5F1F4F0F731127FE
:10032000E02E8C8D8E110CC00FB607FCFACFE88939
:10033000F989808185FFF5CFCE010E944001F1CF80
:10034000EB8DEC0FFD2FF11DE35AFF4FF0829FB7AD
:10035000F8940B8FEA89FB8980818062CFCFCF939D
:10036000DF93EC01888D8823B9F0AA89BB89E889DD
:10037000F9898C9185FD03C0808186FD0DC00FB683
:1003800007FCF7CF8C9185FFF2CF808185FFEDCF01
:10039000CE010E944001E9CFDF91CF91089590E016
:1003A000FC01E458FF4F2491FC01E255FF4F3491CA
:1003B000FC01E656FF4FE491EE23C9F0222339F009
:1003C000233001F1A8F4213019F1223029F1F0E0B5
:1003D000EE0FFF1FEE58FF4FA591B4918FB7F89421
:1003E000EC91611126C030953E233C938FBF089558
:1003F0002730A9F02830C9F0243049F780918000D7
:100400008F7D03C0809180008F7780938000DFCF45
:1004100084B58F7784BDDBCF84B58F7DFBCF809192
:10042000B0008F778093B000D2CF8091B0008F7DE5
:10043000F9CF3E2BDACFCF93DF9390E0FC01E2556A
:10044000FF4F249186569F4FFC0184918823D1F061
:1004500090E0880F991FFC01E859FF4FA591B491D6
:10046000FC01EE58FF4FC591D49161110EC09FB7AA
:10047000F8948C91E22FE0958E238C932881E223CF
:10048000E8839FBFDF91CF9108958FB7F894EC91E7
:10049000E22BEC938FBFF6CF3FB7F89480915801D1
:1004A00090915901A0915A01B0915B0126B5A89B8A
:1004B00005C02F3F19F00196A11DB11D3FBFBA2FF6
:1004C000A92F982F8827BC01CD01620F711D811DB6
:1004D000911D42E0660F771F881F991F4A95D1F73B
:1004E0000895FC0101900020E9F73197AF01481B06
:1004F000590BBC018CE591E00C94C200CF93DF93C3
:100500000E947102EC0182E191E00E9471028C0F65
:100510009D1FDF91CF9108951F920F920FB60F92FA
:1005200011242F933F934F935F936F937F938F93F8
:100530009F93AF93BF93EF93FF938CE591E00E945D
:100540004001FF91EF91BF91AF919F918F917F916A
:100550006F915F914F913F912F910F900FBE0F9030
:100560001F9018951F920F920FB60F9211242F9380
:100570008F939F93EF93FF93E0916C01F0916D0146
:100580008081E0917201F091730182FD1BC0908126
:10059000809175018F5F8F7320917601821741F0F2
:1005A000E0917501F0E0E45AFE4F958F809375015C
:1005B000FF91EF919F918F912F910F900FBE0F9010
:1005C0001F9018958081F4CF1F920F920FB60F9253
:1005D00011242F933F938F939F93AF93BF93809159
:1005E000540190915501A0915601B091570130915D
:1005F000530123E0230F2D3758F50196A11DB11D9E
:10060000209353018093540190935501A093560178
:10061000B09357018091580190915901A0915A01CE
:10062000B0915B010196A11DB11D8093580190937B
:100630005901A0935A01B0935B01BF91AF919F9173
:100640008F913F912F910F900FBE0F901F90189593
:1006500026E8230F0296A11DB11DD2CF1F920F9243
:100660000FB60F9211242F933F934F935F936F9385
:100670007F938F939F93AF93BF93CF93DF93EF932A
:10068000FF9380915201C0911D02D0E087FF24C0EA
:100690001092850010928400809152018F5F8093A8
:1006A000520180915201082E000C990B8C179D0766
:1006B00024F4809152018C30C4F180918400909197
:1006C0008500049680349C4908F47AC080918400A7
:1006D00090918500049676C080915201082E000CFE
:1006E000990B8C179D07C4F6E09152018E2FEE0FE7
:1006F000990BFC01EE0FFF1FE80FF91FE750FE4FAB
:10070000808186FFC9CFE09152018E2FEE0F990BA9
:10071000FC01EE0FFF1FE80FF91FE750FE4F80812D
:1007200060E08F730E94CF01B7CF20918400309199
:100730008500E09152018E2FEE0F990BFC01EE0F18
:10074000FF1FE80FF91FE750FE4F81819281820F52
:10075000931F9093890080938800E09152018E2F1F
:10076000EE0F990BFC01EE0FFF1FE80FF91FE7508A
:10077000FE4F808186FF11C0E09152018E2FEE0F57
:10078000990BFC01EE0FFF1FE80FF91FE750FE4F1A
:10079000808161E08F730E94CF01FF91EF91DF9123
:1007A000CF91BF91AF919F918F917F916F915F9109
:1007B0004F913F912F910F900FBE0F901F90189562
:1007C00080E49CE990938900809388008FEF809368
:1007D0005201E3CFCF92DF92EF92FF920F931F93DC
:1007E000E82FF92F05C0015011092109310961F1E4
:1007F000908196239417B9F305C00150110921097E
:10080000310911F1908196239413F7CFC12CD12C8B
:10081000E12CF12C0AC08FEFC81AD80AE80AF80AAE
:100820000C151D052E053F0579F080818623841760
:1008300091F36C2D7D2D8E2D9F2D1F910F91FF908B
:10084000EF90DF90CF90089560E070E080E090E05E
:100850001F910F91FF90EF90DF90CF90089510922D
:100860005F0110925E0188EE93E0A0E0B0E080931B
:10087000600190936101A0936201B093630184E0F1
:1008800091E090935D0180935C0185EC90E0909302
:1008900069018093680184EC90E090936B018093F0
:1008A0006A0180EC90E090936D0180936C0181EC83
:1008B00090E090936F0180936E0182EC90E09093B2
:1008C00071018093700186EC90E0909373018093A6
:1008D00072011092750110927601109277011092B8
:1008E000780180911D028C3098F491E0980F9093DC
:1008F0001D0280931E0290E0FC01EE0FFF1FE80F27
:10090000F91FE750FE4F88EB9BE0928381830895A7
:100910008FEF80931E020895CF93DF93CDB7DEB79C
:10092000A1970FB6F894DEBF0FBECDBF789484B503
:10093000826084BD84B5816084BD85B5826085BDDB
:1009400085B5816085BD80916E00816080936E0069
:10095000109281008091810082608093810080915B
:10096000810081608093810080918000816080930C
:1009700080008091B10084608093B1008091B000CC
:1009800081608093B00080917A00846080937A00C7
:1009900080917A00826080937A0080917A008160F1
:1009A00080937A0080917A00806880937A00109218
:1009B000C100E0916C01F0916D0182E08083E091D3
:1009C0006801F09169011082E0916A01F0916B0178
:1009D0008FEC808310927401E0917001F0917101AD
:1009E00086E08083E0916E01F0916F0180818061EB
:1009F0008083E0916E01F0916F0180818860808337
:100A0000E0916E01F0916F01808180688083E091B8
:100A10006E01F0916F0180818F7D808361E087E0BE
:100A20000E941B0260E086E00E941B0280911E0271
:100A30008C3008F051C061E088E00E941B02809178
:100A40001E02282F30E0F901EE0FFF1FE20FF31F07
:100A5000E750FE4F9081907C9860908310921F0227
:100A6000109220022CE0622F0E94F307829FB001B7
:100A7000112430E020E0AB01420F531FFA01EE0FCA
:100A8000FF1FE40FF51FE750FE4F908196FD16C043
:100A90002F5F3F4F2C30310571F781110FC010923D
:100AA000800082E080938100109285001092840083
:100AB000B19A80916F00826080936F00E0911E0276
:100AC0008E2F90E0FC01EE0FFF1FE80FF91FE7509B
:100AD000FE4F808180648083E8E82E2E312CFAE07E
:100AE0004F2E512C612C712C60E087E00E94CF01C9
:100AF00083E090E00197F1F761E087E00E94CF0189
:100B000083E290E00197F1F760E087E00E94CF0177
:100B1000E4EBF0E06491E0EAF0E08491E82FF0E0AB
:100B2000EE0FFF1FE057FF4F8591949100E412E410
:100B30002FE030E0462F0E94EA0361157105810520
:100B4000910529F06F5F7F4F8F4F9F4F9F70959555
:100B50008795779567950E9467072DEC3CEC48EEEA
:100B600051E40E94BD060E942F076B017C01F5E055
:100B7000CF16D104E104F1040CF07BC085E191E0D3
:100B80000E947E0280911F024101881A910887FD10
:100B90009394880C991C880C991C092C000CAA08A9
:100BA000BB088091200228E532E0281B310987FD2F
:100BB0003395220F331F220F331F032E000C440BDB
:100BC000550B281939094A095B09A8E7B0E00E94CA
:100BD000810624EB30E040E050E00E946206DA013A
:100BE000C901880D991DAA1DBB1D0E948C00A7017B
:100BF0009601D701C6010197A109B109CC97A105BA
:100C0000B10508F443C081E391E00E947E020E9496
:100C10004C024B015C0184EFC82EDD24D394E12CFF
:100C2000F12C0E944C02681979098A099B09683ED7
:100C3000734081059105A8F3F1E0CF1AD108E108CE
:100C4000F10828EE820E23E0921EA11CB11CC114F3
:100C5000D104E104F10429F780E090E0892B09F444
:100C600043CF0E942C01882309F43ECF0E9400004C
:100C70003BCF80911F029101281B310987FD3395DD
:100C8000C901880F991F880F991FAFCF19A27E0144
:100C900081E2E80EF11CCA01B901A30192010E9490
:100CA0008C06605DF70162937F01211531054105D6
:100CB000510589F7309719F0CF010E9471028EE437
:100CC00091E0A3CF052E97FB1EF400940E947906B5
:100CD00057FD07D00E948C0607FC03D04EF40C94FD
:100CE000790650954095309521953F4F4F4F5F4F76
:100CF000089590958095709561957F4F8F4F9F4F88
:100D000008950E94AE06A59F900DB49F900DA49FDC
:100D1000800D911D11240895A1E21A2EAA1BBB1B60
:100D2000FD010DC0AA1FBB1FEE1FFF1FA217B307B7
:100D3000E407F50720F0A21BB30BE40BF50B661FCD
:100D4000771F881F991F1A9469F760957095809591
:100D500090959B01AC01BD01CF010895A29FB00108
:100D6000B39FC001A39F700D811D1124911DB29FDF
:100D7000700D811D1124911D08950E94D1060C94BF
:100D8000B9070E94B20758F00E94AB0740F029F45F
:100D90005F3F29F00C94A20751110C94ED070C94BD
:100DA000A8070E94CA0768F39923B1F3552391F36A
:100DB000951B550BBB27AA2762177307840738F0CA
:100DC0009F5F5F4F220F331F441FAA1FA9F335D027
:100DD0000E2E3AF0E0E832D091505040E695001CDB
:100DE000CAF72BD0FE2F29D0660F771F881FBB1F95
:100DF000261737074807AB07B0E809F0BB0B802D73
:100E0000BF01FF2793585F4F3AF09E3F510578F09E
:100E10000C94A2070C94ED075F3FE4F3983ED4F3E3
:100E2000869577956795B795F7959F5FC9F7880F72
:100E3000911D9695879597F90895E1E0660F771FC4
:100E4000881FBB1F621773078407BA0720F0621B55
:100E5000730B840BBA0BEE1F88F7E09508950E9480
:100E600036076894B1110C94ED0708950E94D207DB
:100E700088F09F5798F0B92F9927B751B0F0E1F05B
:100E8000660F771F881F991F1AF0BA95C9F714C00B
:100E9000B13091F00E94EC07B1E008950C94EC079A
:100EA000672F782F8827B85F39F0B93FCCF3869544
:100EB00077956795B395D9F73EF4909580957095A1
:100EC00061957F4F8F4F9F4F0895E89409C097FB1E
:100ED0003EF490958095709561957F4F8F4F9F4F11
:100EE0009923A9F0F92F96E9BB279395F695879555
:100EF00077956795B795F111F8CFFAF4BB0F11F418
:100F000060FF1BC06F5F7F4F8F4F9F4F16C08823BE
:100F100011F096E911C0772321F09EE8872F762FF4
:100F200005C0662371F096E8862F70E060E02AF035
:100F30009A95660F771F881FDAF7880F9695879521
:100F400097F9089597F99F6780E870E060E0089549
:100F50009FEF80EC089500240A94161617061806D1
:100F60000906089500240A941216130614060506AD
:100F70000895092E0394000C11F4882352F0BB0F3E
:100F800040F4BF2B11F460FF04C06F5F7F4F8F4FA1
:100F90009F4F089557FD9058440F551F59F05F3FDC
:100FA00071F04795880F97FB991F61F09F3F79F08B
:100FB00087950895121613061406551FF2CF46950D
:100FC000F1DF08C0161617061806991FF1CF86958F
:100FD0007105610508940895E894BB276627772773
:100FE000CB0197F90895991B79E004C0991F9617D2
:100FF00008F0961B881F7A95C9F780950895EE0F23
:0E100000FF1F0590F491E02D0994F894FFCFA6
:10100E00000000006201C200EF00AF012001FE00EF
:10101E0012010D0A007468652064697374616E6351
:10102E0065206973206C657373207468616E20355A
:10103E00005468652064697374616E63652069731A
:10104E00206D6F7265207468616E203630002063EB
:02105E006D0023
:00000001FF
